:020000040000FA
:100000000C947C000C94A4000C94A4000C94A40008
:100010000C94A4000C94A4000C94A4000C94A400D0
:100020000C94A4000C94A4000C94A4000C94A400C0
:100030000C94A4000C94A4000C94A4000C94A400B0
:100040000C9496030C94A4000C9464030C943E034B
:100050000C94A4000C94A4000C94A4000C94A40090
:100060000C94A4000C94A4004E414E494E4954599E
:10007000494E46CDCCCC3D0AD7233C17B7D1387773
:10008000CC2B329595E6241FB14F0A000020410089
:1000900000C84200401C4620BCBE4CCA1B0E5AAED3
:1000A000C59D740000000800020100000304070061
:1000B0000000000000000000000000250028002BC8
:1000C0000000000000240027002A000404040404A7
:1000D00004040402020202020203030303030301F5
:1000E00002040810204080010204081020010204CC
:1000F00008102000E003020611241FBECFEFD8E055
:10010000DEBFCDBF24E0A6E4B3E001C01D92A6325D
:10011000B207E1F713E0A0E0B1E0E0E7F6E102C0EA
:1001200005900D92A634B107D9F710E0CBE7D0E0E7
:1001300004C02197FE010E942A09CA37D107C9F7D6
:100140000E941E040C942B0B0C94000090E0FC0108
:10015000E152FF4F249185539F4FFC0184918823E6
:1001600099F090E0880F991FFC01EF53FF4FA59184
:10017000B491FC01E954FF4F859194918FB7F894A5
:10018000EC91E22BEC938FBF0895AF92BF92CF9288
:10019000DF92EF92FF920F931F93CF93DF936C0147
:1001A0007B018B01040F151FEB015E01AE18BF0828
:1001B000C017D10759F06991D601ED91FC910190DA
:1001C000F081E02DC6010995892B79F7C501DF91F2
:1001D000CF911F910F91FF90EF90DF90CF90BF9044
:1001E000AF900895FC01538D448D252F30E0842F6E
:1001F00090E0821B930B541710F0CF96089501974F
:100200000895FC01918D828D981761F0A28DAE0F3B
:10021000BF2FB11D5D968C91928D9F5F9F73928FC2
:1002200090E008958FEF9FEF0895FC01918D828DEE
:10023000981731F0828DE80FF11D858D90E00895BB
:100240008FEF9FEF0895FC01918D228D892F90E013
:10025000805C9F4F821B91098F739927089581E7D6
:1002600093E00E94230121E0892B09F420E0822FF2
:10027000089580E090E0892B29F00E942F018111E0
:100280000C9400000895FC01A48DA80FB92FB11D96
:10029000A35ABF4F2C91848D90E001968F739927BC
:1002A000848FA689B7892C93A089B1898C9183709A
:1002B00080648C93938D848D981306C00288F38993
:1002C000E02D80818F7D80830895EF92FF920F93C0
:1002D0001F93CF93DF93EC0181E0888F9B8D8C8DF2
:1002E00098131AC0E889F989808185FF15C09FB7E6
:1002F000F894EE89FF896083E889F98980818370A9
:10030000806480839FBF81E090E0DF91CF911F9157
:100310000F91FF90EF900895F62E0B8D10E00F5F78
:100320001F4F0F731127E02E8C8D8E110CC00FB64E
:1003300007FCFACFE889F989808185FFF5CFCE01E6
:100340000E944301F1CFEB8DEC0FFD2FF11DE35A1D
:10035000FF4FF0829FB7F8940B8FEA89FB89808169
:100360008062CFCFCF93DF93EC01888D8823B9F0E3
:10037000AA89BB89E889F9898C9185FD03C08081B0
:1003800086FD0DC00FB607FCF7CF8C9185FFF2CF2D
:10039000808185FFEDCFCE010E944301E9CFDF913F
:1003A000CF91089590E0FC01ED55FF4F2491FC01A1
:1003B000E152FF4F3491FC01E553FF4FE491EE23EE
:1003C000C9F0222339F0233001F1A8F4213019F1CA
:1003D000223029F1F0E0EE0FFF1FE954FF4FA59105
:1003E000B4918FB7F894EC91611126C030953E23FB
:1003F0003C938FBF08952730A9F02830C9F02430EE
:1004000049F7809180008F7D03C0809180008F77B5
:1004100080938000DFCF84B58F7784BDDBCF84B538
:100420008F7DFBCF8091B0008F778093B000D2CFCB
:100430008091B0008F7DF9CF3E2BDACF3FB7F89493
:1004400080914B0390914C03A0914D03B0914E03CA
:1004500026B5A89B05C02F3F19F00196A11DB11D1F
:100460003FBFBA2FA92F982F8827BC01CD01620F5B
:10047000711D811D911D42E0660F771F881F991F16
:100480004A95D1F708958F929F92AF92BF92CF92E3
:10049000DF92EF92FF926B017C010E941E024B01E2
:1004A0005C01C114D104E104F104B9F00E941E0200
:1004B000681979098A099B09683E7340810591058D
:1004C00080F321E0C21AD108E108F10888EE880E15
:1004D00083E0981EA11CB11CE4CFFF90EF90DF9049
:1004E000CF90BF90AF909F908F9008950F931F93E0
:1004F000CF93DF938C0160E08BE00E94D201E80192
:100500000052110960E089E00E94D2018091180434
:1005100090911904892B59F06CE373E080911404D5
:10052000909115040E941B0B60E0892B09F06E8DE1
:100530008AE00E94D20161E089E00E94D201229704
:100540000C171D07F9F661E08BE0DF91CF911F9149
:100550000F910C94D2010F931F93CF93DF93EC0173
:1005600088819981009759F02A813B8126173707A6
:1005700030F081E0DF91CF911F910F9108958B01B1
:100580006F5F7F4F0E94550A009759F099838883C7
:100590001B830A832C813D81232B59F7FC01108298
:1005A000E8CF80E0E7CFCF93DF93EC01888199819A
:1005B000009711F00E94CC09198218821D821C82BA
:1005C0001B821A82DF91CF910895EF92FF920F93D1
:1005D0001F93CF93DF93EC017B018A01BA010E9444
:1005E000AB0281110BC0CE010E94D302CE01DF917C
:1005F000CF911F910F91FF90EF9008951D830C8371
:10060000B701888199810E94240BF0CF50E040E02F
:1006100062E473E08AE194E00C94E502FC0111824B
:1006200010821382128215821482FB010190002035
:10063000E9F73197AF01461B570B0C94E502CF93B6
:10064000DF93EC01FB018617970749F06081718108
:100650006115710541F0448155810E94E502CE018A
:10066000DF91CF9108950E94D302F9CFFC018081E0
:100670009181009711F00C94CC0908951F920F926C
:100680000FB60F9211242F933F934F935F936F9365
:100690007F938F939F93AF93BF93EF93FF9381E7E4
:1006A00093E00E944301FF91EF91BF91AF919F9121
:1006B0008F917F916F915F914F913F912F910F900B
:1006C0000FBE0F901F9018951F920F920FB60F92AA
:1006D00011242F938F939F93EF93FF93E0918103C6
:1006E000F09182038081E0918703F091880382FD7D
:1006F0001BC0908180918A038F5F8F7320918B0341
:10070000821741F0E0918A03F0E0EF58FC4F958F9B
:1007100080938A03FF91EF919F918F912F910F907A
:100720000FBE0F901F9018958081F4CF1F920F92EB
:100730000FB60F9211242F933F938F939F93AF93F4
:10074000BF938091470390914803A0914903B091D2
:100750004A033091460323E0230F2D3758F50196C5
:10076000A11DB11D20934603809347039093480336
:10077000A0934903B0934A0380914B0390914C039B
:10078000A0914D03B0914E030196A11DB11D809320
:100790004B0390934C03A0934D03B0934E03BF9132
:1007A000AF919F918F913F912F910F900FBE0F901E
:1007B0001F90189526E8230F0296A11DB11DD2CFD8
:1007C000E1E7F3E01382128288EE93E0A0E0B0E06C
:1007D00084839583A683B7838EE293E0918380839D
:1007E00085EC90E09587848784EC90E097878687F6
:1007F00080EC90E0918B808B81EC90E0938B828BEE
:1008000082EC90E0958B848B86EC90E0978B868BC6
:10081000118E128E138E148E62E473E08AE194E0DE
:100820000E940E0362E473E084E194E00E940E03F0
:1008300062E473E08EE094E00C940E03CF93DF93B8
:10084000CDB7DEB728970FB6F894DEBF0FBECDBF89
:10085000789484B5826084BD84B5816084BD85B59B
:10086000826085BD85B5816085BD80916E008160A7
:1008700080936E001092810080918100826080934D
:10088000810080918100816080938100809180004F
:100890008160809380008091B10084608093B1007A
:1008A0008091B00081608093B00080917A00846074
:1008B00080937A0080917A00826080937A008091A0
:1008C0007A00816080937A0080917A0080688093BA
:1008D0007A001092C1008BE00E94A60089E00E947D
:1008E000A6008AE00E94A600E0918103F0918203B5
:1008F00082E08083E0917D03F0917E031082E0919D
:100900007F03F09180038FEC808310928903E09144
:100910008503F091860386E08083E0918303F09164
:100920008403808180618083E0918303F09184035C
:10093000808188608083E0918303F09184038081CB
:1009400080688083E0918303F091840380818F7DB0
:10095000808360E08BE00E94D20101E713E060E059
:1009600089E00E94D201780182E0E81AF108F701DB
:1009700060818AE00E94D20161E089E00E94D20198
:10098000FFE4EF16F3E0FF0609F05DC061E08BE0E5
:100990000E94D201005E1F4FAA24A394B12C50E004
:1009A000C52E50E0D52E81E793E00E942301892BCC
:1009B00009F499C06AE070E080E090E00E94430290
:1009C00081E793E00E940101F82E1A8219821C82AD
:1009D0001B821E821D826EE074E0CE0101960E9491
:1009E0001F03FF8218868D809E808FEF881A980AD9
:1009F000B401CE0101960E94AB02882331F1298116
:100A00003A818D819E81BE01695F7F4F820F931F66
:100A10000E94240B9E828D82BE016F5F7F4F8EE00D
:100A200094E00E941F03CE0101960E943603E0E28B
:100A3000FE1210C06AE174E084E194E00E941F039A
:100A40000E940603B0CF87018ACFCE0101960E9493
:100A5000D302E2CFFDE6FF1209C080911A04909103
:100A60001B04009769F30E940E06EACF84E7F81290
:100A700015C080911A0490911B04009759F00E94B0
:100A80000E066093200370932103809322039093BA
:100A90002303D6CF60E070E0CB01F3CFF9821A8256
:100AA000E0901E04F0901F04EFEFEE1AFE0AB7016B
:100AB0008AE194E00E94AB02882309F474CF20916C
:100AC0001A0430911B0480911E0490911F04BE01F2
:100AD0006F5F7F4F820F931F0E94240BF0921F04C1
:100AE000E0921E0460CF8090180490901904811445
:100AF000910491F1E0901404F09015046CE373E01C
:100B0000C7010E941B0B892B99F520E0822E21E062
:100B1000922E3FE4E32E33E0F32EF701119211926F
:100B20007F011A8219821C821B821E821D8243E071
:100B300050E06CE373E0CE0101960E94E502C4012F
:100B40000E947602CE0101960E943603F0E28F0EDB
:100B5000911CE016F10609F7C114D10409F423CF62
:100B60000E942F01882309F41ECF0E9400001BCF92
:100B7000A401B70181E793E00E94C50042E050E084
:100B800060E473E081E793E00E94C500809118045F
:100B900090911904892B01F363E473E080911404AC
:100BA000909115040E941B0B892BB1F680E0882ED2
:100BB00081E0982E9FE4E92E93E0F92EF701A192AF
:100BC000B1927F01609120037091210380912203F3
:100BD000909123030E94FB080E94430263E473E0A8
:100BE000CE0101960E940E03C4010E947602CE013E
:100BF00001960E943603F0E28F0E911C0E151F0520
:100C0000E9F6AACF8EE094E00E94360384E194E0F6
:100C10000E9436038AE194E00C9436036627772716
:100C20000C941206B0E0A0E0E8E1F6E00C94BB08FA
:100C30005C017B016115710519F0DB018D939C93BB
:100C400085010F5F1F4FF501D0818D2F90E00E942D
:100C500062076C01892BB9F5DD32B9F50F5F1F4FC3
:100C6000D5011196DC91C1E05801F1E0AF1AB1084D
:100C700043E050E060E770E0C5010E946B07892BFC
:100C800069F5680182E0C80ED11C45E050E06BE6D2
:100C900070E0C6010E946B07892B21F4680197E080
:100CA000C90ED11CE114F10419F0D701CD92DC92E8
:100CB00060E070E080E89FEFC111FFC060E070E08D
:100CC00080E89FE7FAC05801BBCFDB3229F48501E9
:100CD0000E5F1F4FF501D181C0E0C6CF43E050E069
:100CE00068E670E0C5010E946B07892BE9F0F80106
:100CF00010E000E020E030E0A9015F01B0ED8B2EB4
:100D00008D0E89E08815C8F19C2E689491F88C2F7F
:100D10008870C2FF16C0811102C00F5F1F4F31964D
:100D2000D501DC91C92DE9CFE114F10429F00E5F62
:100D30001F4FF7011183008360E070E080EC9FE7B4
:100D4000BCC0882311F001501109A5E0B0E00E9459
:100D5000AA089B01AC01220F331F441F551F280D09
:100D6000311D411D511D283999E93907490799E17C
:100D70005907A8F2C6609C2ED2CFAEEF8A1206C0E9
:100D8000C3FD3CC09C2E689493F8C9CFDF7DD53459
:100D9000A9F580818D3239F4C061DF01129681811D
:100DA00062E070E006C0DF018B32C1F3119661E0B2
:100DB00070E080535D01A61AB70A8A30F8F4E0E8C3
:100DC000CE16ECE0DE065CF4B601660F771F660F08
:100DD000771FC60ED71ECC0CDD1CC80ED11C5D01C2
:100DE000FFEFAF1ABF0A8C9180538A30A8F1C4FF7D
:100DF00003C0D194C194D1080C0D1D1DC1FF09C0C1
:100E0000E114F10431F081E0A81AB108D701AD92E4
:100E1000BC92CA01B9010E948807C370C33009F4AB
:100E200090584B015C0120E030E0A9010E9483074B
:100E3000882309F440C0CFE9D0E017FF05C0119521
:100E400001951109C7E8D0E06E01B8E1CB1AD108CD
:100E500080E2E82EF12C0FC0D501B1CFFE01259123
:100E60003591459154910E191F09C501B4010E9495
:100E7000E9074B015C01D501C4010E151F0574F78C
:100E80002497F594E794CC16DD06A9F78A2F880FEE
:100E90008B2F881F8F3F49F020E030E0A901C5016A
:100EA000B4010E948307811106C082E290E0909312
:100EB000210480932004C501B401CDB7DEB7ECE076
:100EC0000C94D70891110C945608803219F089506F
:100ED0008550C8F70895FB01DC014150504088F06F
:100EE0008D9181341CF08B350CF4805E65916134FA
:100EF0001CF06B350CF4605E861B611171F3990B6D
:100F00000895881BFCCF0E94C50708F481E008956E
:100F1000E89409C097FB3EF4909580957095619593
:100F20007F4F8F4F9F4F9923A9F0F92F96E9BB2749
:100F30009395F695879577956795B795F111F8CFC5
:100F4000FAF4BB0F11F460FF1BC06F5F7F4F8F4F30
:100F50009F4F16C0882311F096E911C0772321F026
:100F60009EE8872F762F05C0662371F096E8862FBE
:100F700070E060E02AF09A95660F771F881FDAF715
:100F8000880F9695879597F90895990F0008550F42
:100F9000AA0BE0E8FEEF16161706E807F907C0F0FF
:100FA00012161306E407F50798F0621B730B840B07
:100FB000950B39F40A2661F0232B242B252B21F4E1
:100FC00008950A2609F4A140A6958FEF811D811D81
:100FD00008950E94FC070C9470080E94620838F083
:100FE0000E94690820F0952311F00C9459080C9484
:100FF0005F0811240C94A4080E94810870F3959F47
:10100000C1F3950F50E0551F629FF001729FBB27FF
:10101000F00DB11D639FAA27F00DB11DAA1F649F9B
:101020006627B00DA11D661F829F2227B00DA11D4E
:10103000621F739FB00DA11D621F839FA00D611DD4
:10104000221F749F3327A00D611D231F849F600DF5
:10105000211D822F762F6A2F11249F5750409AF01E
:10106000F1F088234AF0EE0FFF1FBB1F661F771FAA
:10107000881F91505040A9F79E3F510580F00C9475
:1010800059080C94A4085F3FE4F3983ED4F3869586
:1010900077956795B795F795E7959F5FC1F7FE2B15
:1010A000880F911D9695879597F908959927882718
:1010B000089597F99F6780E870E060E008959FEFDA
:1010C00080EC089500240A941616170618060906DF
:1010D000089500240A9412161306140605060895AE
:1010E000092E0394000C11F4882352F0BB0F40F436
:1010F000BF2B11F460FF04C06F5F7F4F8F4F9F4F76
:10110000089557FD9058440F551F59F05F3F71F0F7
:101110004795880F97FB991F61F09F3F79F087955E
:101120000895121613061406551FF2CF4695F1DFE7
:1011300008C0161617061806991FF1CF8695710577
:10114000610508940895E894BB2766277727CB01AB
:1011500097F908950E94EC08A59F900DB49F900DFB
:10116000A49F800D911D112408952F923F924F92BC
:101170005F926F927F928F929F92AF92BF92CF9227
:10118000DF92EF92FF920F931F93CF93DF93CDB730
:10119000DEB7CA1BDB0B0FB6F894DEBF0FBECDBFA8
:1011A00009942A88398848885F846E847D848C8479
:1011B0009B84AA84B984C884DF80EE80FD800C8182
:1011C0001B81AA81B981CE0FD11D0FB6F894DEBF65
:1011D0000FBECDBFED010895A29FB001B39FC00126
:1011E000A39F700D811D1124911DB29F700D811D53
:1011F0001124911D08950E94890888F09F5798F046
:10120000B92F9927B751B0F0E1F0660F771F881F0B
:10121000991F1AF0BA95C9F714C0B13091F00E9425
:10122000A308B1E008950C94A308672F782F8827AE
:10123000B85F39F0B93FCCF3869577956795B3954C
:10124000D9F73EF490958095709561957F4F8F4FBB
:101250009F4F0895EE0FFF1F0590F491E02D099424
:101260000F931F93CF93DF938230910510F482E0A8
:1012700090E0E0912404F091250430E020E0B0E01B
:10128000A0E0309799F42115310509F44AC0281BD4
:10129000390B24303105D8F58A819B8161157105A0
:1012A00089F1FB0193838283FE0111C0408151814A
:1012B0000281138148175907E0F04817590799F43C
:1012C000109761F012960C93129713961C93329616
:1012D000CF01DF91CF911F910F91089500932404C6
:1012E00010932504F4CF2115310551F0421753070F
:1012F00038F0A901DB019A01BD01DF01F801C1CF7E
:10130000EF01F9CF9093250480932404CDCFFE0103
:10131000E20FF31F8193919322503109398328837F
:10132000D7CF2091220430912304232B41F4209124
:101330002603309127033093230420932204209125
:101340002403309125032115310541F42DB73EB713
:101350004091280350912903241B350BE09122046E
:10136000F0912304E217F307A0F42E1B3F0B28177C
:10137000390778F0AC014E5F5F4F2417350748F00E
:101380004E0F5F1F50932304409322048193919347
:101390009FCFF0E0E0E09CCFCF93DF930097E9F0A0
:1013A000FC01329713821282A0912404B09125048B
:1013B000ED0130E020E01097A1F420813181820F0F
:1013C000931F20912204309123042817390709F034
:1013D00061C0F0932304E0932204DF91CF9108953C
:1013E000EA01CE17DF07E8F54A815B819E014115CE
:1013F0005105B1F7E901FB83EA8349915991C40F83
:10140000D51FEC17FD0761F4808191810296840F4E
:10141000951FE90199838883828193819B838A83C5
:10142000F0E0E0E012968D919C9113970097B9F54A
:101430002D913C911197CD010296820F931F20911F
:101440002204309123042817390739F6309751F5D3
:101450001092250410922404B0932304A093220434
:10146000BCCFD383C28340815181840F951FC8179D
:10147000D90761F44E5F5F4F88819981480F591FEA
:10148000518340838A819B81938382832115310517
:1014900009F0B0CFF0932504E09324049ECFFD0122
:1014A000DC01C0CF13821282D7CFB0E0A0E0EBE521
:1014B000FAE00C94B7088C01009751F4CB010E941C
:1014C00030098C01C801CDB7DEB7E0E10C94D30838
:1014D000FC01E60FF71F9C0122503109E217F307C8
:1014E00008F49DC0D901CD91DC911197C617D7079B
:1014F00098F0C530D10530F3CE01049786179707D1
:1015000008F3C61BD70B2297C193D1936D937C939D
:10151000CF010E94CC09D6CF5B01AC1ABD0A4C01A9
:101520008C0E9D1EA0912404B0912504512C412CB9
:10153000F12CE12C109731F5809122049091230435
:101540008815990509F05CC04616570608F058C082
:101550008091240390912503009741F48DB79EB7A5
:101560004091280350912903841B950BE817F90734
:1015700008F055C0F0932304E0932204F90171832D
:101580006083A0CF8D919C91119712966C901297C9
:1015900013967C901397A815B90559F56C0142E094
:1015A000C40ED11CCA14DB0420F1AC014A195B093A
:1015B000DA011296159780F062827382518340831C
:1015C000D9016D937C93E114F10471F0D701139666
:1015D000FC93EE93129776CF22968C0F9D1FF90104
:1015E00091838083F301EFCFF0932504E0932404EB
:1015F00069CF4816590608F42C017D01D3019ACF12
:10160000CB010E9430097C01009749F0AE01B8017E
:101610000E94120BC8010E94CC09870153CF10E031
:1016200000E050CFFB01DC0102C001900D9241505F
:101630005040D8F70895FB01DC018D91019080198D
:101640000110D9F3990B0895FB01DC0101900D9273
:101650000020E1F7089510E0CBE7D0E004C0FE01E0
:101660000E942A092196CC37D107C9F7F894FFCFF9
:101670000100010001000000000000000000000067
:10168000000000000000000000000000000000005A
:101690000100010001000100000000000000000046
:1016A000000000000000000000000000000000003A
:1016B0000000010001000100010000000000000026
:1016C000000000000000000000000000000000001A
:1016D0000000000001000100010001000000000006
:1016E00000000000000000000000000000000000FA
:1016F00000000000000001000100010001000000E6
:1017000000000000000000000000000000000000D9
:1017100000000000000000000100010001000100C5
:1017200000000000000000000000000000000000B9
:1017300000000000000000000000010001000100A6
:101740000100000000000000000000000000000098
:101750000000000000000000000000000100010087
:101760000100010000000000000000000000000077
:101770000000000000000000000000000000010068
:101780000100010001000000000000000000000056
:101790000000000000000000000000000000000049
:1017A0000100010001000100000000000000000035
:1017B0000000000000000000000000000000000029
:1017C0000000010001000100010000000000000015
:1017D0000000000000000000000000000000000009
:1017E00000000000010001000100010000000000F5
:1017F00000000000000000000000000000000000E9
:1018000000000000000001000100010001000000D4
:1018100000000000000000000000000000000000C8
:1018200000000000000000000100010001000100B4
:1018300000000000000000000000000000000000A8
:101840000000000000000000000001000100010095
:101850000000000000000000000000000000000088
:101860000000000000000000000000000100010076
:101870000000000000000000000000000000000068
:101880000000000000000000000000000000010057
:101890000000C8420000260480000000000065012E
:1018A000C500F200B2012301010115016F66660057
:0618B0000D0A006F6E003E
:107E0000112484B714BE81FFF0D085E080938100F7
:107E100082E08093C00088E18093C10086E0809377
:107E2000C20080E18093C4008EE0C9D0259A86E02C
:107E300020E33CEF91E0309385002093840096BBD3
:107E4000B09BFECF1D9AA8958150A9F7CC24DD24C4
:107E500088248394B5E0AB2EA1E19A2EF3E0BF2EE7
:107E6000A2D0813461F49FD0082FAFD0023811F036
:107E7000013811F484E001C083E08DD089C08234E0
:107E800011F484E103C0853419F485E0A6D080C0E4
:107E9000853579F488D0E82EFF2485D0082F10E0AE
:107EA000102F00270E291F29000F111F8ED06801E7
:107EB0006FC0863521F484E090D080E0DECF843638
:107EC00009F040C070D06FD0082F6DD080E0C81688
:107ED00080E7D80618F4F601B7BEE895C0E0D1E017
:107EE00062D089930C17E1F7F0E0CF16F0E7DF06D8
:107EF00018F0F601B7BEE89568D007B600FCFDCFD4
:107F0000A601A0E0B1E02C9130E011968C91119780
:107F100090E0982F8827822B932B1296FA010C0160
:107F200087BEE89511244E5F5F4FF1E0A038BF0790
:107F300051F7F601A7BEE89507B600FCFDCF97BE46
:107F4000E89526C08437B1F42ED02DD0F82E2BD052
:107F50003CD0F601EF2C8F010F5F1F4F84911BD097
:107F6000EA94F801C1F70894C11CD11CFA94CF0C13
:107F7000D11C0EC0853739F428D08EE10CD085E9AC
:107F80000AD08FE07ACF813511F488E018D01DD067
:107F900080E101D065CF982F8091C00085FFFCCF94
:107FA0009093C60008958091C00087FFFCCF809118
:107FB000C00084FD01C0A8958091C6000895E0E648
:107FC000F0E098E1908380830895EDDF803219F02E
:107FD00088E0F5DFFFCF84E1DECF1F93182FE3DFCA
:107FE0001150E9F7F2DF1F91089580E0E8DFEE27F6
:047FF000FF270994CA
:027FFE00040479
:00000001FF
